:10000000D5C100000C9427340C9452340C947D34E8
:100010000C94A8340C94D3340C94FE340C942935ED
:100020000C945435F4C10000F2C10000F0C100008E
:10003000EEC100000C940442EAC10000E8C10000D7
:10004000E6C10000E4C10000E2C10000E0C1000020
:10005000DEC10000DCC10000DAC100000C947F3575
:10006000D6C100000C949B390C94D139D0C100004A
:10007000CEC10000CCC10000CAC10000C8C1000050
:10008000C6C10000C4C10000C2C10000C0C1000060
:100090000C94463A0C947C3ABAC10000B8C10000F6
:1000A000B6C10000B4C10000B2C10000B0C1000080
:1000B000AEC10000ACC10000AAC10000A8C1000090
:1000C000A6C10000A4C10000A2C100000C94F13A36
:1000D0000C94273B9CC100000C949C3B0C94D23B9D
:1000E00096C100000134CB33D333DF33EC330D340E
:1000F0001A34A336A836AD36B736C1363A37CB36C2
:10010000D336DB36E536EF36F936083712373A376D
:100110001C37263730375C375F374E375237583702
:100120009637633767376D37713775377B377F376A
:100130008337963789378D379137084AD73B3BCE7F
:10014000016E84BCBFFDC12F3D6C74319ABD5683D6
:100150003DDA3D00C77F11BED9E4BB4C3E916BAA8E
:10016000AABE000000803F05A84CCDB2D44EB938DD
:1001700036A9020C50B9918688083CA6AAAA2ABEC4
:10018000000000803F0000000A0B02090C0D0E0861
:100190000703040100000000000000000000000050
:1001A000000000000000000000000000000000004F
:1001B000000012111000000000000000000000000C
:1001C00000000000000000000000000001021020FC
:1001D000200808102040102040800201020108047D
:1001E0000201010204081020408080402010080411
:1001F000020180040201804020100804020108046A
:1002000002010102040810204080010204081020AD
:1002100040800505050507050808080802020202D6
:100220000A0A080804040404010101010101010192
:100230000303030303030303040707070C0C0C0C5D
:100240000C0C0C0C02020202060606060606060646
:100250000B0B0B0B0B0B0B0B0000200023002600DD
:1002600029002C002F0032000001000003010601CC
:10027000090100002200250028002B002E0031007B
:10028000340002010000050108010B0100002100FB
:10029000240027002A002D00300033000101000057
:1002A000040107010A010200407A10F35A00A0720B
:1002B0004E18090010A5D4E80000E87648170000A1
:1002C000E40B54020000CA9A3B000000E1F505006F
:1002D0000080969800000040420F000000A08601B8
:1002E000000000102700000000E803000000006488
:1002F00000000000000A00000000000100000000F3
:10030000002C76D888DC674F0823DFC1DFAE59E1C7
:10031000B1B796E5E3E453C63AE651997696E8E636
:10032000C28426EB898C9B62ED407C6FFCEFBC9C09
:100330009F40F2BAA56FA5F490055A2AF75C936B1B
:100340006CF9676DC11BFCE0E40D47FEF520E6B5D6
:1003500000D0ED902E0300943577050080841E08B0
:100360000000204E0A000000C80C333333330F98CE
:100370006E12831141EF8D2114893BE65516CFFE95
:10038000E6DB18D1844B381BF77C1D901DA4BBE421
:1003900024203284725E228100C9F124ECA1E53D63
:1003A0002700B009033AAE3A593B043C11241FBE62
:1003B000CFEFD1E2DEBFCDBF00E00CBF15E0A0E083
:1003C000B2E0EEEBF8E900E00BBF02C007900D923F
:1003D000AA39B107D9F728E0AAE9B5E001C01D9212
:1003E000AD34B207E1F713E0CCEAD3E000E006C099
:1003F00022970109FE010BBF0E945347C23AD10761
:1004000080E00807A9F70E94483C0C945D4CF8CDA9
:100410004F925F926F927F928F929F92AF92BF9214
:10042000CF92DF92EF92FF92CF93DF93CDB7DEB7FB
:100430006E970FB6F894DEBF0FBECDBFE091A0055A
:10044000F091A105878590890E94590C2B013C01F0
:10045000E091A005F091A105878590890E94710C1B
:100460004B015C01E091A005F091A1058785908981
:100470000E94890C6B017C0122E0B301A201CE0134
:1004800049960E943C4322E0B501A401CE01439667
:100490000E943C4322E0B701A601CE010D960E94C6
:1004A0003C4364EE74E0CE0101960E94CA42BE0154
:1004B000675E7F4FCE0101960E94944369E075E02C
:1004C0000E94A543BE016D5E7F4F0E9494436AEE79
:1004D00074E00E94A543BE01635F7F4F0E94944376
:1004E000BC01CE0107960E94F442CE0101960E9403
:1004F0006342BE01695F7F4F8BEA95E00E94B13C89
:10050000CE0107960E946342CE010D960E9463427F
:10051000CE0143960E946342CE0149960E946342F7
:100520006E960FB6F894DEBF0FBECDBFDF91CF91B0
:10053000FF90EF90DF90CF90BF90AF909F908F9003
:100540007F906F905F904F9008954F925F926F925F
:100550007F928F929F92AF92BF92CF92DF92EF9253
:10056000FF92CF93DF93CDB7DEB76E970FB6F894B7
:10057000DEBF0FBECDBFE091A005F091A105818146
:10058000882309F46EC0858596850E945F0C2B0137
:100590003C01E091A005F091A105858596850E941A
:1005A000770C4B015C01E091A005F091A1058585D8
:1005B00096850E948F0C6B017C0122E0B301A201A1
:1005C000CE0149960E943C4322E0B501A401CE0130
:1005D00043960E943C4322E0B701A601CE010D964E
:1005E0000E943C436DEE74E0CE0101960E94CA4227
:1005F000BE01675E7F4FCE0101960E94944369E081
:1006000075E00E94A543BE016D5E7F4F0E9494433A
:100610006AEE74E00E94A543BE01635F7F4F0E94B3
:100620009443BC01CE0107960E94F442CE0101968C
:100630000E946342BE01695F7F4F8BEA95E00E9492
:10064000B13CCE0107960E946342CE010D960E94F6
:100650006342CE0143960E946342CE0149960E94B6
:1006600063426E960FB6F894DEBF0FBECDBFDF912A
:10067000CF91FF90EF90DF90CF90BF90AF909F9081
:100680008F907F906F905F904F9008954F925F9200
:100690006F927F928F929F92AF92BF92CF92DF9292
:1006A000EF92FF92CF93DF93CDB7DEB76E970FB681
:1006B000F894DEBF0FBECDBFE091A005F091A1057B
:1006C0008181882309F475C0838594850E945F0C1D
:1006D0002B013C01E091A005F091A1058385948553
:1006E0000E94770C4B015C01E091A005F091A105FF
:1006F000838594850E948F0C6B017C0122E0B301FD
:10070000A201CE0149960E943C4322E0B501A4011A
:10071000CE0143960E943C4322E0B701A601CE01E0
:100720000D960E943C4362EF74E0CE0101960E9458
:10073000CA42BE01675E7F4FCE0101960E9494437C
:1007400069E075E00E94A543BE016D5E7F4F0E9487
:1007500094436AEE74E00E94A543BE01635F7F4F3D
:100760000E949443BC01CE0107960E94F442CE0140
:1007700001960E946342BE01695F7F4F8BEA95E05C
:100780000E94B13CBE01695F7F4F88E496E00E9401
:10079000B13CCE0107960E946342CE010D960E94A5
:1007A0006342CE0143960E946342CE0149960E9465
:1007B00063426E960FB6F894DEBF0FBECDBFDF91D9
:1007C000CF91FF90EF90DF90CF90BF90AF909F9030
:1007D0008F907F906F905F904F90089583E20E947A
:1007E000053861E0892B09F060E08091A0059091C7
:1007F000A1050E945E1484E20E94053861E0892B05
:1008000009F060E08091A0059091A1050E94631419
:1008100085E20E94053861E0892B09F060E0809153
:10082000A0059091A1050C946814E091A005F091A9
:10083000A105858996890E944D2F682F8091A0057A
:100840009091A1050C94221DE091A005F091A105C5
:100850008789908D0E944D2F61E068278091A005C7
:100860009091A1050C94441CE091A005F091A10584
:10087000818D928D0E944D2F682F8091A0059091BF
:10088000A1050C94851C8091A0059091A105FC0107
:100890002181211102C00C942014089580919C059F
:1008A00090919D050E94DD100E946B2C80919C050B
:1008B00090919D050E94E5100C946B2C4F925F92D5
:1008C0006F927F928F929F92AF92BF92CF92DF9260
:1008D000EF92FF920F931F93CF93DF93CDB7DEB7C5
:1008E00060970FB6F894DEBF0FBECDBFE091A005B4
:1008F000F091A1058281882309F4F8C00785108949
:1009000080919C0590919D050E94D5100E94382CE5
:100910006B017C01C801CDD72B013C01C801CFD7A9
:100920009B01AC01C8012D873E874F87588BD9D7D3
:100930004B015C01C801DBD769837A838B839C837D
:10094000C801E7D76D837E838F839887C801E7D777
:1009500069877A878B879C872D853E854F85588947
:10096000C114D104E104F10461F5C301B2010E9494
:10097000BD4320E030E0A9010E944A44811121C01A
:1009800029813A814B815C81C501B4010E94BD433C
:1009900020E030E0A9010E944A44811112C029855B
:1009A0003A854B855C856D817E818F8198850E941B
:1009B000BD4320E030E0A9010E944A44882309F4A5
:1009C00095C080919C0590919D050E94DD100E942C
:1009D000672C5C0180919C0590919D050E94E5101B
:1009E0000E94672C4C01C701B6010E94EC446B01C8
:1009F0007C01B401882777FD8095982F0E94EC44F4
:100A00002AE037ED43E25CE30E9405462AE037ED39
:100A100043E25CE30E94BE439B01AC01C701B60107
:100A20000E9405469B01AC0181E0A816B104E1F0EB
:100A3000E2E0AE16B10469F1AB2809F03EC0C8018E
:100A40002D873E874F87588B34D72D853E854F8520
:100A500058890E94BE43AB01BC018091A0059091D2
:100A6000A1050E94871229C0C8012D873E874F87A4
:100A7000588B37D72D853E854F8558890E94BE43B8
:100A8000AB01BC018091A0059091A1050E94B41218
:100A900014C0C8012D873E874F87588B3AD72D85C4
:100AA0003E854F8558890E94BE43AB01BC018091B1
:100AB000A0059091A1050E94E1128091A00590915E
:100AC000A105FC0122A9211111C00E9449130E9415
:100AD000332E8091A0059091A1050E94D01D892BF5
:100AE00029F4E091A005F091A10512AA60960FB635
:100AF000F894DEBF0FBECDBFDF91CF911F910F9154
:100B0000FF90EF90DF90CF90BF90AF909F908F902D
:100B10007F906F905F904F90089567EF74E08BEA3D
:100B200095E00E94A63C0E94FB1060E570E00E94E8
:100B3000EC464AE050E08BEA95E00C94663DCF939A
:100B4000DF9300D01F92CDB7DEB78091A0059091C2
:100B5000A1050E9449130E947D2E882321F10E9445
:100B6000C935AB01BC018091A0059091A1054983D5
:100B70005A836B837C830E94491349815A816B811C
:100B80007C810E94652E882371F08091A005909150
:100B9000A1050E9449130F900F900F900F90DF91C5
:100BA000CF910C94252E0F900F900F900F90DF9106
:100BB000CF910895E091A005F091A105838D948DCA
:100BC0000E94122D882341F0E091A005F091A1052B
:100BD000838D948D0C942D2D0895E091A005F091B6
:100BE000A1058281882341F080919C0590919D050B
:100BF0000E94D5100C94D82B08958F929F92AF929B
:100C0000BF92CF92DF92EF92FF920F931F93CF93F9
:100C1000DF93CDB7DEB763970FB6F894DEBF0FBE94
:100C2000CDBF8EE790E00E94543C8C010E94841A54
:100C30001093A1050093A00526E040E855E260E08E
:100C400070E088E496E00E94393926E040E855E2F9
:100C500060E070E08BEA95E00E94393926E040E8D8
:100C600055E260E070E085EE96E00E94393926E0BA
:100C700040E855E260E070E082E897E00E94393990
:100C800042E350E060E070E088E496E00E94943E29
:100C900042E350E060E070E085EE96E00E94943E12
:100CA00042E350E060E070E082E897E00E94943E0A
:100CB00083E290E00E94543C4C0108EC10E020E2FA
:100CC00030E042E250E061E270E00E94A12E83E257
:100CD00090E00E94543C6C012DE130E04FE150E087
:100CE0006EE170E00E94A12E83E290E00E94543CED
:100CF0007C012AE130E04CE150E06BE170E00E94C1
:100D0000A12E8FE190E00E94543C5C010E94142EC1
:100D1000F50191828082D382C282F582E4826CEDF9
:100D200075E0C5010E94152EB5018091A005909136
:100D3000A1050E9456128DECC82E8CECD82E8CE4A6
:100D4000E82E8FE3F82E97018601B701A601809166
:100D5000A0059091A1050E944D1325E230E044E2E8
:100D600050E063E270E08091A0059091A1050E949F
:100D70005E128DE090E00E94543C8C010E94341180
:100D800066E070E0C8010E94351167E070E0C801BC
:100D90000E94581168E070E0C8010E947B11E09148
:100DA000A005F091A105148B038B82E090E00E94D6
:100DB000543C8C0166E270E00E94472FE091A00550
:100DC000F091A105168B058B82E090E00E94543CC7
:100DD0008C0168E270E00E94472FE091A005F0913D
:100DE000A105108F078B82E090E00E94543C8C019B
:100DF00069E270E00E94472FE091A005F091A10503
:100E0000128F018F84E090E00E94543C8C0166E3D5
:100E100070E00E945F2CB80180919C0590919D0527
:100E20000E94D91084E090E00E94543C8C0167E35A
:100E300070E00E945F2CB80180919C0590919D0507
:100E40000E94E11089E190E00E94543C8C0144E151
:100E500050E065E170E00E94BA2BB80180919C05DA
:100E600090919D050E94D11041E050E06DEE75E03B
:100E700082E00E94B63341E050E06DEE75E083E021
:100E80000E94B6338DE090E00E94543C8C0167E2F2
:100E900070E00E94EE2CE091A005F091A105148F66
:100EA000038F88E290E00E94543C8C010E94D52F71
:100EB000B8018091A0059091A1050E94411381E1A4
:100EC00090E00E94543C7C010E946F2F44E650E069
:100ED00060E070E0C7010E94702F6FE975E0C70104
:100EE0000E94782FC7010E949B2FB701C8010E9462
:100EF000E82F81E190E00E94543C7C010E946F2F1A
:100F000045E050E060E070E0C7010E94702F64EDA2
:100F100079E0C7010E94782FC7010E949B2FB7017B
:100F2000C8010E94E82F81E190E00E94543C7C01BE
:100F30000E946F2F45E050E060E070E0C7010E9422
:100F4000702F62E47AE0C7010E94782FC7010E94E7
:100F50009B2FB701C8010E94E82F81E190E00E9419
:100F6000543C7C010E946F2F45E050E060E070E04F
:100F7000C7010E94702F63E07BE0C7010E94782FB9
:100F8000C7010E949B2FB701C8010E94E82F81E191
:100F900090E00E94543C7C010E946F2F45E050E09D
:100FA00060E070E0C7010E94702F6FEB7BE0C7012B
:100FB0000E94782FC7010E949B2FB701C8010E9491
:100FC000E82F81E190E00E94543C7C010E946F2F49
:100FD00048EC50E060E070E0C7010E94702F65EAC5
:100FE00072E0C7010E94782FC7010E949B2FB701B2
:100FF000C8010E94E82F81E190E00E94543C7C01EE
:101000000E946F2F48EC50E060E070E0C7010E9442
:10101000702F68E072E0C7010E94782FC7010E941C
:101020009B2FB701C8010E94E82F81E190E00E9448
:10103000543C7C010E946F2F48EC50E060E070E06F
:10104000C7010E94702F66E473E0C7010E94782FE9
:10105000C7010E949B2FB701C8010E94E82F81E1C0
:1010600090E00E94543C7C010E946F2F42E350E0CC
:1010700060E070E0C7010E94702F6EEE73E0C70160
:101080000E94782FC7010E949B2FB701C8010E94C0
:10109000E82F81E190E00E94543C7C010E946F2F78
:1010A00042E350E060E070E0C7010E94702F63E40B
:1010B00074E0C7010E94782FC7010E949B2FB701DF
:1010C000C8010E94E82F81E190E00E94543C7C011D
:1010D0000E946F2F42E350E060E070E0C7010E9481
:1010E000702F65E174E0C7010E94782FC7010E944C
:1010F0009B2FB701C8010E94E82F42E350E060E057
:1011000070E080919A0590919B050E94702F6EE58A
:1011100074E080919A0590919B050E94782F8091B0
:101120009A0590919B050E949B2F60919A05709162
:101130009B05C8010E94E82F81E190E00E94543C89
:101140007C010E946F2F42E350E060E070E0C70135
:101150000E94702F64E274E0C7010E94782FC701DB
:101160000E949B2FB701C8010E94E82F81E190E007
:101170000E94543C7C010E946F2F44E150E060E0EB
:1011800070E0C7010E94702F64E374E0C7010E9401
:10119000782FC7010E949B2FB701C8010E94E82F3A
:1011A00081E190E00E94543C7C010E946F2F4AE054
:1011B00050E060E070E0C7010E94702F6AED75E0BA
:1011C000C7010E94782FC7010E949B2FB701C80159
:1011D0000E94E82F81E190E00E94543C7C010E9433
:1011E0006F2F42E350E060E070E0C7010E94702F73
:1011F0006EE474E0C7010E94782FC7010E949B2F04
:10120000B701C8010E94E82F81E190E00E94543CA0
:101210007C010E946F2F44EF51E060E070E0C70155
:101220000E94702F6DE875E0C7010E94782FC701FA
:101230000E949B2FB701C8010E94E82F85E190E032
:101240000E94543C8C010E94992D64E070E0C8011A
:101250000E949A2DB8018091A0059091A1050E944D
:101260005A12E0919E05F0919F0584E690E09183EB
:1012700080836CED75E0C5010E941D2ECE010196A4
:10128000A4D48091A0059091A1052DB73EB723511C
:1012900031090FB6F8943EBF0FBE2DBFADB7BEB734
:1012A000119623E1FE01319601900D922A95E1F706
:1012B0000E94AC1CE091A005F091A1058385948566
:1012C000FED2AB01BC01E091A005F091A10581899E
:1012D0009289FBD2E091A005F091A10583859485C8
:1012E00006D3AB01BC01E091A005F091A105818975
:1012F000928903D3E091A005F091A105838594859F
:101300000ED3AB01BC01E091A005F091A10581894C
:1013100092890BD30FB6F894DEBF0FBECDBFE0911C
:10132000A005F091A1058189928963960FB6F89482
:10133000DEBF0FBECDBFDF91CF911F910F91FF9008
:10134000EF90DF90CF90BF90AF909F908F902DC384
:101350008091A0059091A1050E9445130C9408303E
:10136000CF93DF9382E090E00E94543CEC01DFD405
:10137000D0939F05C0939E0586E090E00E94543C68
:10138000EC010ED7D0939D05C0939C0581E190E0C0
:101390000E94543CEC010E946F2FD0939B05C09398
:1013A0009A05DF91CF910895CF92DF92EF92FF924D
:1013B0000F931F93CF93DF93CDB7DEB7C456D109F8
:1013C0000FB6F894DEBF0FBECDBF8BEA95E00E944A
:1013D0002D38181619060CF045C024E630E0AE0191
:1013E0004F5F5F4F6AE08BEA95E00E949A3E843639
:1013F00091054CF4E1E0F0E0EC0FFD1FE80FF91F60
:1014000010820196F4CFBE016F5F7F4F80919E05E1
:1014100090919F058DD48C01CE0101967C016E01C7
:1014200095E6C90ED11CF70111927F018BEA95E078
:101430000E944638EC14FD04B1F7B8018091A00574
:101440009091A1050E947C260115110559F0F80123
:1014500084AD95AD0E94583CF80115AE14AEC8019C
:101460000E94583CCC59DF4F0FB6F894DEBF0FBE38
:10147000CDBFDF91CF911F910F91FF90EF90DF9043
:10148000CF9008958F929F92AF92BF92CF92DF92AA
:10149000EF92FF920F931F93CF93DF93CDB7DEB7F9
:1014A000C456D1090FB6F894DEBF0FBECDBF85EE8E
:1014B00096E00E942D38181619060CF090C024E60C
:1014C00030E0AE014F5F5F4F6AE085EE96E00E942C
:1014D0009A3E843691054CF4E1E0F0E0EC0FFD1FFC
:1014E000E80FF91F10820196F4CFBE016F5F7F4FA6
:1014F00080919E0590919F051BD48C01FC0164A1F5
:1015000075A186A197A10E94B9446B017C01611568
:1015100071058105910539F1E091A005F091A105D2
:1015200081899289CCD14B015C0166277727CB0159
:101530006C197D098E099F090E94EC4420E038E86F
:1015400044EF54E40E9451449B01AC01C501B40135
:101550000E94BE43AB01BC01E091A005F091A10542
:1015600081899289B2D16EEF74E08BEA95E00E9496
:10157000A63CE091A005F091A105818992899FD1B7
:10158000AB01BC0122E030E08BEA95E00E94563EC0
:10159000E091A005F091A105E85BFF4F81E0808319
:1015A000CE0101967C016E0195E6C90ED11CF701B2
:1015B00011927F0185EE96E00E944638EC14FD04FE
:1015C000B1F70115110559F0F80184AD95AD0E94F0
:1015D000583CF80115AE14AEC8010E94583CCC59D5
:1015E000DF4F0FB6F894DEBF0FBECDBFDF91CF91B6
:1015F0001F910F91FF90EF90DF90CF90BF90AF9031
:101600009F908F9008958F929F92AF92BF92CF92AA
:10161000DF92EF92FF920F931F93CF93DF93CDB79B
:10162000DEB7C456D1090FB6F894DEBF0FBECDBFEA
:1016300082E897E00E942D38181619060CF08BC02E
:1016400024E630E0AE014F5F5F4F6AE082E897E04A
:101650000E949A3E843691054CF4E1E0F0E0EC0FF4
:10166000FD1FE80FF91F10820196F4CFBE016F5FD6
:101670007F4F80919E0590919F055AD38C01FC016C
:1016800064A175A186A197A10E94B9446B017C0158
:10169000611571058105910511F1E091A005F091A9
:1016A000A1058189928923D14B015C01C701B60153
:1016B0000E94EC4420E038E844EF54E40E94514496
:1016C0009B01AC01C501B4010E94BE43AB01BC014A
:1016D000E091A005F091A105818992890ED165E084
:1016E00075E08BEA95E00E94A63CE091A005F091A0
:1016F000A10581899289FBD0AB01BC0122E030E0D9
:101700008BEA95E00E94563EE091A005F091A1057C
:10171000E75BFF4F81E08083CE0101967C016E0183
:1017200095E6C90ED11CF70111927F0182E897E07E
:101730000E944638EC14FD04B1F70115110559F06B
:10174000F80184AD95AD0E94583CF80115AE14AE79
:10175000C8010E94583CCC59DF4F0FB6F894DEBF49
:101760000FBECDBFDF91CF911F910F91FF90EF90F2
:10177000DF90CF90BF90AF909F908F900895CF92C1
:10178000DF92EF92FF920F931F93CF93DF93CDB72A
:10179000DEB7C456D1090FB6F894DEBF0FBECDBF79
:1017A00088E496E00E942D38892B09F44CC024E689
:1017B00030E0AE014F5F5F4F6AE088E496E00E9440
:1017C0009A3E843691054CF4E1E0F0E0EC0FFD1F09
:1017D000E80FF91F10820196F4CFBE016F5F7F4FB3
:1017E0008BEA95E00E94C13CBE016F5F7F4F809104
:1017F0009E0590919F059CD28C01CE0101967C01A3
:101800006E0195E6C90ED11CF70111927F0188E4A3
:1018100096E00E944638EC14FD04B1F7B8018091BF
:10182000A0059091A1050E947C260115110559F093
:10183000F80184AD95AD0E94583CF80115AE14AE88
:10184000C8010E94583CCC59DF4F0FB6F894DEBF58
:101850000FBECDBFDF91CF911F910F91FF90EF9001
:10186000DF90CF900895FC011486158616861082AD
:1018700011821282138214821582168217821086B8
:101880001186128613861786108A118A128A138A85
:10189000148A158A168A178A108E118E128E81E08C
:1018A000838F0895E0CFFC014787508B618B728B4B
:1018B0000895FC0167857089818992890895FC01EA
:1018C00060817181828193810895FC0140835183FD
:1018D000628373830895FC01438B548B658B768BF5
:1018E0000895FC0163897489858996890895FC01AE
:1018F00064817581868197810895FC0144835583B5
:10190000668377830895FC01478B508F618F728FB8
:101910000895FC016789708D818D928D0895FC0179
:1019200060857185828593850895FC014087518784
:10193000628773870895FC018485811103C061115A
:1019400003C00895611113C0648740815181628191
:1019500073817058408351836283738347855089B4
:101960006189728970584787508B618B728B08959B
:10197000FC018585811103C0611103C008956111C7
:1019800013C065874481558166817781705844838F
:10199000558366837783438954896589768970582E
:1019A000438B548B658B768B0895FC01408151816C
:1019B000628173814787508B618B728B4481558123
:1019C00066817781438B548B658B768B40855185FF
:1019D00062857385478B508F618F728F0895CF9387
:1019E000DF93EC018B8D811156C081E08B8F23E357
:1019F00033E34BEC51E4688179818A819B810E94B9
:101A00000546688379838A839B8323E333E34BEC26
:101A100051E46C817D818E819F810E9405466C839B
:101A20007D838E839F8323E333E34BEC51E468850E
:101A300079858A859B850E940546688779878A878C
:101A40009B8723E333E34BEC51E46F8578898989E5
:101A50009A890E9405466F87788B898B9A8B23E33E
:101A600033E34BEC51E46B897C898D899E890E941C
:101A700005466B8B7C8B8D8B9E8B23E333E34BEC8A
:101A800051E46F89788D898D9A8D0E9405466F8B00
:101A9000788F898F9A8FDF91CF910895CF93DF93BD
:101AA000EC018B8D882309F455C01B8E25E832E4A8
:101AB00041E25DE3688179818A819B810E940546CC
:101AC000688379838A839B8325E832E441E25DE37E
:101AD0006C817D818E819F810E9405466C837D8310
:101AE0008E839F8325E832E441E25DE36885798552
:101AF0008A859B850E940546688779878A879B87A8
:101B000025E832E441E25DE36F85788989899A8925
:101B10000E9405466F87788B898B9A8B25E832E483
:101B200041E25DE36B897C898D899E890E9405462F
:101B30006B8B7C8B8D8B9E8B25E832E441E25DE3E1
:101B40006F89788D898D9A8D0E9405466F8B788F6D
:101B5000898F9A8FDF91CF910895FC0110821182B5
:101B6000128213821786108A118A128A14821582B1
:101B700016821782138A148A158A168A108611868D
:101B800012861386178A108E118E128E0895FC010C
:101B900010821182128213821786108A118A128A89
:101BA0000895FC011482158216821782138A148A02
:101BB000158A168A0895FC011086118612861386EE
:101BC000178A108E118E128E0895EF92FF920F9346
:101BD0001F93CF93DF938C0183E1F80111928A95D3
:101BE000E9F77801C0E0D0E0CE010E94E249F701B8
:101BF00081937F012196C331D105B1F7C801DF91EF
:101C0000CF911F910F91FF90EF900895EF92FF9267
:101C10000F931F93CF93DF931F92CDB7DEB7CE0103
:101C20000B967C0100E010E0F70161917F01C80193
:101C300069830E94E2496981681719F0C8010E940E
:101C4000EA490F5F1F4F0331110571F70F90DF91C4
:101C5000CF911F910F91FF90EF900895FC0116AE68
:101C600017AEDC01A05CBF4F1C9211961C9211961E
:101C70001C9211961C9211961C9211961C92119610
:101C80001C9211961C9211961C9211961C921496FD
:101C90001C92108211821282138214821582168283
:101CA000178210861186128613861486158616866C
:101CB0001786108A118A128A138A148A158A168A3C
:101CC000178A108E118E128E138E148E158E168E0C
:101CD000178E10A211A212A213A214A215A216A26C
:101CE00017A210A611A612A613A614A615A616A62C
:101CF00017A615AE14AE08950F931F93CF93DF93DD
:101D00008C01EB01CB0101960E94563CBE01FC0107
:101D10006150710977FD06C0D801A60FB71F2C913D
:101D20002193F6CFDF91CF911F910F9108950895E0
:101D30002F923F924F925F926F927F928F929F92DB
:101D4000AF92BF92CF92DF92EF92FF920F931F93C9
:101D5000CF93DF93CDB7DEB7A2970FB6F894DEBF6F
:101D60000FBECDBF9D838C832B0184E690E00E9443
:101D7000563C8C018EE490E00E94543C9AA389A3C7
:101D80006DDFAC81BD81BC91BE831B821A82212C88
:101D9000312C1982712C812C912C54018394C12CEB
:101DA000D12C7601E9A1FAA1E45BFF4FF887EF831C
:101DB0006624639489A19AA1855B9F4F9A8789873E
:101DC000A9A1BAA1A65BBF4FBC87AB87E9A1FAA1C5
:101DD000E75BFF4FFE87ED8789A19AA1885B9F4F44
:101DE000988B8F87A9A1BAA1A95BBF4FBA8BA98B8A
:101DF000E9A1FAA1EA5BFF4FFC8BEB8B89A19AA1C9
:101E00008B5B9F4F9E8B8D8BA9A1BAA1AC5BBF4F03
:101E1000B88FAF8BE9A1FAA1ED5BFF4FFA8FE98F85
:101E200089A19AA18E5B9F4F9C8F8B8FA9A1BAA18C
:101E3000AF5BBF4FBE8FAD8FE9A1FAA1E05CFF4F52
:101E4000F8A3EF8F8E819A81891B87FD4BC1F20128
:101E5000E80FF11D87FDFA95A081A03421F4F981E6
:101E6000F625F98339C18981882341F0F801E20D13
:101E7000F31DA0839FEF291A390A2EC180ED8A0F26
:101E80008A30E8F4BB27A7FDB095D097A50194014F
:101E90000E944D470E94EA449B01AC01C701B60174
:101EA0000E94BE436B017C01AAE0B0E0A501940151
:101EB0000E9443474B015C01772473940DC1A73402
:101EC00069F4772009F401C1A9A1BAA1CD92DD92EC
:101ED000ED92FC921397DE966C92F6C0A83559F4F9
:101EE000772009F4F2C0E9A1FAA1C482D582E68282
:101EF000F78267AEE9C0A93571F4772009F4E5C02F
:101F0000A9A1BAA11896CD92DD92ED92FC921B97F1
:101F1000EF8DF8A1BDC0AA3571F4772009F4D5C0C2
:101F2000A9A1BAA11C96CD92DD92ED92FC921F97C9
:101F3000ED8DFE8DADC0A93471F4772009F4C5C0D4
:101F4000A9A1BAA15096CD92DD92ED92FC92539741
:101F5000EB8DFC8D9DC0AA3471F4772009F4B5C0D7
:101F6000A9A1BAA15496CD92DD92ED92FC92579719
:101F7000E98DFA8D8DC0AD3471F4772009F4A5C0D8
:101F8000A9A1BAA15896CD92DD92ED92FC925B97F1
:101F9000EF89F88D7DC0A33571F4772009F495C0E1
:101FA000A9A1BAA15C96CD92DD92ED92FC925F97C9
:101FB000ED89FE896DC0A63471F4772009F485C0DF
:101FC000A9A1BAA19096CD92DD92ED92FC92939741
:101FD000EB89FC895DC0A23571F4772009F475C0E6
:101FE000A9A1BAA19496CD92DD92ED92FC92979719
:101FF000E989FA894DC0A03571F4772009F465C0EC
:10200000A9A1BAA19896CD92DD92ED92FC929B97F0
:10201000EF85F8893DC0A13571F4772009F455C0EA
:10202000A9A1BAA19C96CD92DD92ED92FC929F97C8
:10203000ED85FE852DC0A23771F4772009F445C0E7
:10204000A9A1BAA1D096CD92DD92ED92FC92D39740
:10205000EB85FC851DC0A73669F47720B1F1A9A1F5
:10206000BAA1D496CD92DD92ED92FC92D797E985F4
:10207000FA850EC0A23671F4772039F1A9A1BAA170
:10208000D896CD92DD92ED92FC92DB97EF81F885A8
:1020900060821AC0AD3229F4F7FAF094F7F8F094A0
:1020A0001BC0AE3289F4C501B4010E94EA449B0111
:1020B000AC01C701B6010E9451446B017C01812C27
:1020C000912C5401839408C0712C812C912C5401C3
:1020D0008394C12CD12C76018A819B8101969B83AC
:1020E0008A83B0CEB101C80107DEA9A1BAA1DD96ED
:1020F0009C938E93DC9781E0FD01E35BFF4F80832F
:10210000F201AC81BD818D919C919F01241935090B
:102110002817390714F41192F4CFC8010E94583CD3
:1021200089A19AA1A2960FB6F894DEBF0FBECDBFCB
:10213000DF91CF911F910F91FF90EF90DF90CF90A3
:10214000BF90AF909F908F907F906F905F904F90D7
:102150003F902F9008950F931F93CF93DF93EC013F
:1021600089E190E00E94543C8C010E949B2B1983D2
:10217000088384E090E00E94543C8C010E94502C23
:102180001B830A8384E090E00E94543C8C010E94EF
:10219000502C1D830C83DF91CF911F910F910895D7
:1021A000DACFFC01718360830895FC018081918105
:1021B0000895FC01738362830895FC0182819381F9
:1021C0000895FC01758364830895FC0184819581E1
:1021D0000895E0914B08F0914C0880E090E0309732
:1021E00049F0029620813181820F931F0280F38192
:1021F000E02DF5CF08950F931F93CF93DF931F9298
:102200001F92CDB7DEB78091490890914A088E01A0
:102210000F5F1F4F009729F40D5418401A8309834C
:1022200009C0081B190B1A830983D3DF800F911F84
:102230009A83898389819A810F900F90DF91CF9142
:102240001F910F910895FC018FEF9FEF9183808381
:1022500093838283958384831782168211861086E6
:102260001386128614860895EECF0F931F93CF9393
:10227000DF938C01EB011C161D06ACF4FC0171838D
:10228000608361E08C2F0E94973761E08C2F0E9461
:10229000D03760E070E0F8018081DF91CF911F912D
:1022A0000F910C947F36DF91CF911F910F9108957C
:1022B0000F931F93CF93DF938C01EB011C161D0628
:1022C000ACF4FC017383628361E08C2F0E9497372A
:1022D00061E08C2F0E94D03760E070E0F8018281CD
:1022E000DF91CF911F910F910C947F36DF91CF91A9
:1022F0001F910F910895CF93DF93EC01CB01181636
:10230000190684F47D836C8361E00E94973761E055
:102310008C810E94D03760E070E08C81DF91CF919A
:102320000C947F36DF91CF9108950F931F93CF9335
:10233000DF938C01EB01FC01808191818F3FFFEFE6
:102340009F0779F06F3F710509F058F4F801248573
:10235000211102C060E070E00E947F36F801D7834F
:10236000C683DF91CF911F910F910895FC01868163
:10237000978108950F931F93CF93DF938C01EB0107
:10238000FC01828193818F3FFFEF9F0779F06F3FC0
:10239000710509F058F4F8012485211102C060E0AC
:1023A00070E00E947F36F801D187C087DF91CF911E
:1023B0001F910F910895FC018085918508950F93D9
:1023C0001F93CF93DF938C01EB01FC0184819581F6
:1023D0008F3FFFEF9F0779F06F3F710509F058F4C9
:1023E000F8012485211102C060E070E00E947F3670
:1023F000F801D387C287DF91CF911F910F91089584
:10240000FC01828593850895CF93DF93EC0181E0F1
:102410008C87888199818F3F2FEF920721F06E8101
:102420007F810E947F368A819B818F3F2FEF9207A9
:1024300021F0688579850E947F368C819D818F3F50
:102440002FEF920731F06A857B85DF91CF910C9455
:102450007F36DF91CF910895CF93DF93EC011C86F7
:10246000888199818F3F2FEF920721F060E070E023
:102470000E947F368A819B818F3F2FEF920721F048
:1024800060E070E00E947F368C819D818F3F2FEF4E
:10249000920731F060E070E0DF91CF910C947F36CD
:1024A000DF91CF910895FC0184850895FC01748328
:1024B00063830895FC017683658308951F93CF930A
:1024C000DF93FC01C62FD42F122F63AF74AF45AF3B
:1024D00056AFFF962083318360E08C2F0E949737A0
:1024E00060E08D2F0E94973760E0812F0E94973720
:1024F00061E08C2F0E94D03761E08D2F0E94D03791
:1025000061E0812FDF91CF911F910C94D0370F9311
:102510001F93CF93DF9300D01F92CDB7DEB78C010E
:102520009A01AB01FC01658D87859089662319F0BE
:10253000BA01A90110C029833A834B835C83BFD9B8
:1025400029813A814B815C810E94BE43AB01BC0171
:10255000F801878590890F900F900F900F90DF9171
:10256000CF911F910F919FC90F931F93CF93DF932B
:1025700000D01F92CDB7DEB78C019A01AB01FC01F0
:10258000658D87859089662319F0BA01A90110C06D
:1025900029833A834B835C83AAD929813A814B8171
:1025A0005C810E94BE43AB01BC01F8018785908924
:1025B0000F900F900F900F90DF91CF911F910F917F
:1025C0008AC90F931F93CF93DF9300D01F92CDB78B
:1025D000DEB78C019A01AB01FC01658D878590897E
:1025E000662319F0BA01A90110C029833A834B83ED
:1025F0005C8395D929813A814B815C810E94BE43DD
:10260000AB01BC01F801878590890F900F900F9066
:102610000F90DF91CF911F910F9175C90F931F9369
:10262000CF93DF93EC018B01FB0187AD882331F061
:102630004481558166817781CE0169DFF801E05CD4
:10264000FF4F8081882339F0F801408551856285EC
:102650007385CE0189DFF801EF5BFF4F808188230E
:1026600059F0F8014485558566857785CE01DF915F
:10267000CF911F910F91A5CFDF91CF911F910F9116
:102680000895FC01708767830895FC018781908518
:102690000895FC018381948108952F923F924F9277
:1026A0005F926F927F928F929F92AF92BF92CF92E2
:1026B000DF92EF92FF920F931F93CF93DF9300D09F
:1026C0001F92CDB7DEB71C014A015B012801390119
:1026D000DC0113960D911C911497D801ED91FC919A
:1026E00060857185882777FD8095982F0E94EC443E
:1026F00069837A838B839C83A50194010E94514452
:102700000E94B944F10170A3678F29813A814B81FE
:102710005C81C501B4010E945144D10195966D932D
:102720007D938D939C939897D8011296ED91FC918F
:10273000139760857185882777FD8095982F0E9473
:10274000EC444B015C01A30192010E9451440E94A0
:10275000B944F10172A361A3A5019401C301B201BF
:102760000E945144D10199966D937D938D939C93D2
:102770009C97D8011496ED91FC9115976085718511
:10278000882777FD8095982F0E94EC444B015C01CF
:10279000A70196010E9451440E94B944F10174A31B
:1027A00063A3A5019401C701B6010E945144D10160
:1027B0009D966D937D938D939C93D0970F900F90E2
:1027C0000F900F90DF91CF911F910F91FF90EF909D
:1027D000DF90CF90BF90AF909F908F907F906F9041
:1027E0005F904F903F902F900895FC0121A981E0C8
:1027F000282721AB8381948121110C94252E0C94E0
:10280000332ECF93DF93EC018EA9811116C06CE0BB
:1028100075E08BEA95E00E94C13C6CE075E088E4CD
:1028200096E00E94C13C0E94C935FE01E858FF4F66
:1028300060837183828393831CAADF91CF91089573
:1028400060E175E08BEA95E00C94C13C8F929F9219
:10285000AF92BF92CF92DF92EF92FF92CF93DF932E
:10286000EC014A015B010E94C9356B017C0120E04B
:1028700030E04AE754E4C501B4010E9405460E94D5
:10288000B9444B015C010E94C9356C197D098E0960
:102890009F0986169706A806B90628F08F819885A5
:1028A0000E940830F0CFDF91CF91FF90EF90DF9042
:1028B000CF90BF90AF909F908F9008958F5B9F4F68
:1028C000FC01608308958E5B9F4FFC016083089537
:1028D0008D5B9F4FFC01608308954F925F926F92D2
:1028E0007F928F929F92AF92BF92CF92DF92EF92A0
:1028F000FF920F931F93CF93DF9300D01F92CDB71A
:10290000DEB78C014A015B010E94D53569837A8369
:102910008B839C830E94D5352B013C01C12CD12C8B
:1029200076010E94D53529813A814B815C81621BF9
:10293000730B840B950B86169706A806B906C0F094
:10294000F801878190850E9408300E94D535C4180F
:10295000D508E608F708C60ED71EE81EF91E0E9425
:10296000D5352B013C01C814D904EA04FB04CCF290
:102970000F900F900F900F90DF91CF911F910F91BB
:10298000FF90EF90DF90CF90BF90AF909F908F908F
:102990007F906F905F904F9008952F923F924F924B
:1029A0005F926F927F928F929F92AF92BF92CF92DF
:1029B000DF92EF92FF920F931F93CF93DF93CDB7E8
:1029C000DEB7AF970FB6F894DEBF0FBECDBF9FA79F
:1029D0008EA7DC011B968D919C911C9750969C9321
:1029E0008E931F973D01B1E46B0E711CF301808142
:1029F00081117EC30EA51FA50E5B1F4FD8018C91C0
:102A0000811176C3EEA5FFA5ED5BFF4FF987E8873F
:102A1000808181116DC381E02EA53FA52B5B3F4FC7
:102A20003A832983D9018C934EA45FA4B6E44B0E5C
:102A3000511CF20180832EA53FA5295B3F4F3C83AB
:102A40002B83D9018C93EEA5FFA5EC5BFF4F808310
:102A50002FEF3FEF4FEF5FEF6FEF7FEFEEA5FFA59B
:102A6000838194810E94432EAEA5BFA513968D91BC
:102A70009C9114970E94332ECC24CA94DC2CEE2413
:102A8000EA94FE2C22242A94322C1F821E821D825C
:102A90001BA21AA219A218A21F8E1E8E1E861F86A6
:102AA000188A198A812C912C54011A861B861C863F
:102AB0001D861A8E1B8E1C8E1D8E1E8A1F8A188ED6
:102AC000198E1A8A1B8A1C8A1D8A7BA66AA65DA299
:102AD0004CA21DA70CA799A19111DAC20E94D5356D
:102AE0006EA37FA388A799A7E981FA8180818823B3
:102AF00009F480C0AEA5BFA51396ED91FC91149783
:102B0000808191810E94E32EEEA5FFA587859089A3
:102B10000E945F0C2B013C01B101882777FD809555
:102B2000982F0E94EC44AEA5BFA595962D913D919E
:102B30004D915C9198970E9405469B01AC01C301A1
:102B4000B2010E94BE43AB01BC01EEA5FFA5878583
:102B500090890E94650CAAA5BBA58C91882309F4D5
:102B6000ABC0BE8DB11121C0ED81E111A6C040E026
:102B700050E0BA01AEA5BFA51F968D919C915097CC
:102B80000E94650C319421943108AEA5BFA513961F
:102B9000ED91FC911497B101808191810E94142FD5
:102BA000B1E0BD83E1E0EE8F88C0FD81F11185C009
:102BB000A981BA811C92319421943108AEA5BFA598
:102BC0001396ED91FC911497B101808191810E943F
:102BD000142FEEA5FFA5878590890E945F0C20E049
:102BE00030E040E05FE30E9405466A8B7B8B8C8B74
:102BF0009D8B63C06A857B858C859D850E94EC4496
:102C00002B013C01AEA5BFA595962D913D914D910F
:102C10005C9198976A897B898C899D890E9451442F
:102C20009B01AC01C301B2010E944A44AEA5BFA5FD
:102C30001396ED91FC91149787FF37C080819181A5
:102C40000E94E32EEEA5FFA5878590890E945F0C68
:102C50002B013C01B101882777FD8095982F0E94B8
:102C6000EC44AEA5BFA595962D913D914D915C91FB
:102C700098970E9405469B01AC01C301B2010E94D6
:102C8000BE43AB01BC01EEA5FFA5878590890E94DC
:102C9000650C8A859B85AC85BD850196A11DB11DFE
:102CA0008A879B87AC87BD8708C0808191810E94FD
:102CB0002E2F91E099A301C01D82ACA1BDA18C91E2
:102CC000882309F480C0AEA5BFA51396ED91FC91B1
:102CD0001497828193810E94E32EEEA5FFA587853C
:102CE00090890E94770C2B013C01B701882777FD62
:102CF0008095982F0E94EC44AEA5BFA599962D9182
:102D00003D914D915C919C970E9405469B01AC01C1
:102D1000C301B2010E94BE43AB01BC01EEA5FFA5F9
:102D2000878590890E947D0CACA5BDA58C918823D8
:102D300009F4A3C0BF8DB11121C0EE81E1119EC085
:102D400040E050E0BA01AEA5BFA51F968D919C91C1
:102D500050970E947D0CF194E194F108AEA5BFA5B7
:102D60001396ED91FC911497B701828193810E9493
:102D7000142FB1E0BE83E1E0EF8F80C0FE81F1113E
:102D80007DC0ACA1BDA11C92F194E194F108AEA567
:102D9000BFA51396ED91FC911497B70182819381A1
:102DA0000E94142FEEA5FFA5878590890E94770CBD
:102DB00020E030E040E05FE30E9405466E8B7F8BB1
:102DC000888F998F5BC0C501B4010E94EC442B0130
:102DD0003C01AEA5BFA599962D913D914D915C9179
:102DE0009C976E897F89888D998D0E9451449B01A3
:102DF000AC01C301B2010E944A44AEA5BFA513961F
:102E0000ED91FC91149787FF31C0828193810E94DC
:102E1000E32EEEA5FFA5878590890E94770C2B01F4
:102E20003C01B701882777FD8095982F0E94EC44DC
:102E3000AEA5BFA599962D913D914D915C919C9722
:102E40000E9405469B01AC01C301B2010E94BE4332
:102E5000AB01BC01EEA5FFA5878590890E947D0C82
:102E6000FFEF8F1A9F0AAF0ABF0A08C082819381C1
:102E70000E942E2F21E02AA301C01E82AB81BC81BB
:102E80008C91882309F480C0AEA5BFA51396ED915F
:102E9000FC911497848195810E94E32EEEA5FFA5F5
:102EA000878590890E948F0C2B013C01B6018827F1
:102EB00077FD8095982F0E94EC44AEA5BFA59D9606
:102EC0002D913D914D915C91D0970E9405469B01BB
:102ED000AC01C301B2010E94BE43AB01BC01EEA52F
:102EE000FFA5878590890E94950CA885B9858C914E
:102EF000882309F4ABC0B8A1B11121C0EF81E11161
:102F0000A6C040E050E0BA01AEA5BFA51F968D91C6
:102F10009C9150970E94950CD194C194D108AEA574
:102F2000BFA51396ED91FC911497B601848195810C
:102F30000E94142FB1E0BF83E1E0E8A388C0FF81C5
:102F4000F11185C0AB81BC811C92D194C194D10890
:102F5000AEA5BFA51396ED91FC911497B60184819F
:102F600095810E94142FEEA5FFA5878590890E9468
:102F70008F0C20E030E040E05FE30E9405466A8F5E
:102F80007B8F8C8F9D8F63C06E857F8588899989A3
:102F90000E94EC442B013C01AEA5BFA59D962D914E
:102FA0003D914D915C91D0976A8D7B8D8C8D9D8DDF
:102FB0000E9451449B01AC01C301B2010E944A44EA
:102FC000AEA5BFA51396ED91FC91149787FF37C06E
:102FD000848195810E94E32EEEA5FFA587859089C7
:102FE0000E948F0C2B013C01B601882777FD80954C
:102FF000982F0E94EC44AEA5BFA59D962D913D91C2
:103000004D915C91D0970E9405469B01AC01C30194
:10301000B2010E94BE43AB01BC01EEA5FFA58785AE
:1030200090890E94950C8E859F85A889B989019603
:10303000A11DB11D8E879F87A88BB98B08C0848185
:1030400095810E942E2F91E09BA301C01F82AEA507
:10305000BFA513968D919C9114970E94212E8C01EF
:103060000E94D535222717FD2095322F061B170BFE
:10307000280B390B8EA19FA1A8A5B9A5080F191F70
:103080002A1F3B1FB901A8018EA59FA526DC23CDD1
:10309000AAA1AA2309F422CDBBA1BB2309F41ECD0A
:1030A00040E050E0BA01EEA5FFA5878590890E9417
:1030B000650C40E050E0BA01AEA5BFA51F968D910A
:1030C0009C9150970E947D0C40E050E0BA01EEA523
:1030D000FFA5878590890E94950CAEA5BFA51F9678
:1030E0008D919C9150970E94D50C80E090E002C099
:1030F0008FEF9FEFAF960FB6F894DEBF0FBECDBF38
:10310000DF91CF911F910F91FF90EF90DF90CF90C3
:10311000BF90AF909F908F907F906F905F904F90F7
:103120003F902F9008950F931F93CF93DF93CDB7C8
:10313000DEB7A4970FB6F894DEBF0FBECDBF8C01EB
:10314000FC0183899489AFD9882319F065E575E07E
:1031500002C06EE075E0CE014F960E94CA42F801AF
:103160008389948903D94AE0BC01CE0149960E9423
:103170001243F801838994891ED94AE0BC01CE012B
:1031800043960E941243F8018389948939D94AE011
:10319000BC01CE010D960E94124363E175E0CE01A1
:1031A00001960E94CA42BE01615E7F4FCE01019628
:1031B0000E94944368E175E00E94A543BE01675EEA
:1031C0007F4F0E9494436BE175E00E94A543BE01CE
:1031D0006D5E7F4F0E9494436EE175E00E94A543AF
:1031E000BE01635F7F4F0E949443BC01CE010796EE
:1031F0000E94F442CE0101960E946342BE01695FC3
:103200007F4F8BEA95E00E94B13CBE01695F7F4F22
:1032100088E496E00E94B13CCE0107960E9463428A
:10322000CE010D960E946342CE0143960E946342F6
:10323000CE0149960E946342CE014F960E9463429E
:10324000A4960FB6F894DEBF0FBECDBFDF91CF912D
:103250001F910F910895CF93DF93CDB7DEB72C97D1
:103260000FB6F894DEBF0FBECDBFFC01838D948DE9
:103270000E940F2D882319F06EE075E002C065E50D
:1032800075E0CE0107960E94CA4261E275E0CE0168
:1032900001960E94CA42BE01695F7F4FCE0101962E
:1032A0000E949443BC018BEA95E00E94B13CCE01A0
:1032B00001960E946342CE0107960E9463422C96BB
:1032C0000FB6F894DEBF0FBECDBFDF91CF9108954A
:1032D000CF93DF93CDB7DEB762970FB6F894DEBF1A
:1032E0000FBECDBF80599F4FFC01608171814AE0C4
:1032F000CE010D960E94124366E275E0CE01019662
:103300000E94CA42BE01635F7F4FCE0101960E94B8
:103310009443BC01CE0107960E94F442CE0101966F
:103320000E946342BE01695F7F4F8BEA95E00E9475
:10333000B13CCE0107960E946342CE010D960E94D9
:10334000634262960FB6F894DEBF0FBECDBFDF9129
:10335000CF910895FC01EE58FF4F0190F081E02DD0
:103360001082FC01EC58FF4F0190F081E02D10829B
:10337000FC01EA58FF4F0190F081E02D1082772781
:1033800067FD7095FB01F996EE0FFF1FE80FF91F1F
:103390000190F081E02D21E02083FC01E059FF4FF6
:1033A0007183608395CF0F931F93CF93DF93EC01CD
:1033B00018821A828FE190E00E94543C8C010E9496
:1033C000142E1C830B8385E190E00E94543C8C01F9
:1033D0000E94992D1E830D8388E290E00E94543C48
:1033E0008C010E94D52F18870F838CE190E00E94FA
:1033F000543C8C010E94520C1C870B878CE190E09E
:103400000E94543C8C010E94520C1E870D878CE157
:1034100090E00E94543C8C010E94520C188B0F8744
:103420008CE190E00E94543C8C010E94520C1A8B5B
:10343000098B8B859C85988B8F871E8E19AA1AAA5B
:103440001BAA1CAAFE01EF59FF4F108211821282A3
:103450001382349610821182128213823496108263
:1034600011821282138211E01DAB60E0CE0172DF87
:103470001D8F1EAA1FAA198218AE8FEF9FEF9AAF59
:1034800089AF9CAF8BAF9EAF8DAFFE01FF9691834E
:103490008083329610823196108231961082329655
:1034A00010823196108231961082339710823796AF
:1034B00010823196108232971082349610823197A2
:1034C00010823296108235961082118212821382F7
:1034D00034971082118212821382389610823196AC
:1034E000108211821282138271971082F0961082DC
:1034F000118212821382C458DF4F19821882DF9121
:10350000CF911F910F910895FC01EE58FF4F9C0140
:1035100023593F4F3183208332962F5F3F4F3183B2
:10352000208332962F5F3F4F318320833CCFCF9350
:10353000DF93CDB7DEB72C970FB6F894DEBF0FBE82
:10354000CDBFFC0180AD882319F065E575E002C0B0
:103550006EE075E0CE0107960E94CA426BE275E00C
:10356000CE0101960E94CA42BE01695F7F4FCE0123
:1035700001960E949443BC018BEA95E00E94B13C05
:10358000CE0101960E946342CE0107960E946342DB
:103590002C960FB6F894DEBF0FBECDBFDF91CF9152
:1035A00008950F931F93CF93DF93CDB7DEB768973E
:1035B0000FB6F894DEBF0FBECDBF8C01FC01858134
:1035C00096810E94AD2D882319F065E575E002C053
:1035D0006EE075E0CE0143960E94CA42F8018581F3
:1035E00096810E94CB2D4AE0BC01CE010D960E942F
:1035F000124360E375E0CE0101960E94CA42BE010B
:103600006D5E7F4FCE0101960E94944365E375E0A5
:103610000E94A543BE01635F7F4F0E949443BC019B
:10362000CE0107960E94F442CE0101960E946342A9
:10363000BE01695F7F4F8BEA95E00E94B13CBE01FD
:10364000695F7F4F88E496E00E94B13CCE01079607
:103650000E946342CE010D960E946342CE014396C2
:103660000E94634268960FB6F894DEBF0FBECDBFCE
:10367000DF91CF911F910F910895CF93DF93CDB735
:10368000DEB72C970FB6F894DEBF0FBECDBF22E099
:10369000CE0107960E943C4368E375E0CE01019697
:1036A0000E94CA42BE01695F7F4FCE0101960E940F
:1036B0009443BC018BEA95E00E94B13CCE01019697
:1036C0000E946342CE0107960E9463422C960FB679
:1036D000F894DEBF0FBECDBFDF91CF910895CF9399
:1036E000DF93CDB7DEB72C970FB6F894DEBF0FBED1
:1036F000CDBFFC018281882319F065E575E002C029
:103700006EE075E0CE0107960E94CA426EE375E056
:10371000CE0101960E94CA42BE01695F7F4FCE0171
:1037200001960E949443BC018BEA95E00E94B13C53
:10373000CE0101960E946342CE0107960E94634229
:103740002C960FB6F894DEBF0FBECDBFDF91CF91A0
:103750000895CF93DF93CDB7DEB72C970FB6F894CB
:10376000DEBF0FBECDBFFC0185A9882319F065E53A
:1037700075E002C06EE075E0CE0107960E94CA4275
:1037800064E475E0CE0101960E94CA42BE01695F01
:103790007F4FCE0101960E949443BC018BEA95E0D5
:1037A0000E94B13CCE0101960E946342CE01079671
:1037B0000E9463422C960FB6F894DEBF0FBECDBFB9
:1037C000DF91CF910895CF93DF93CDB7DEB72C97DC
:1037D0000FB6F894DEBF0FBECDBFFC01858D8823E8
:1037E00019F065E575E002C06EE075E0CE01079660
:1037F0000E94CA426AE475E0CE0101960E94CA4264
:10380000BE01695F7F4FCE0101960E949443BC01C7
:103810008BEA95E00E94B13CCE0101960E94634282
:10382000CE0107960E9463422C960FB6F894DEBF35
:103830000FBECDBFDF91CF910895FC0126A92111C4
:1038400003C087A9882319F060E575E002C067E529
:1038500075E08BEA95E00C94C13CCF93DF93EC01CB
:103860001E8E8D859E850E94D50C8B859C850E9421
:10387000D50C8B819C810E94252E81E08EAB1AAAEB
:10388000CE01DF91CF91D9CFEF92FF920F931F938B
:10389000CF93DF931F92CDB7DEB77C01FC0180ADE3
:1038A0006817E9F060AFC701698341DE698166236B
:1038B000B1F084E090E00E94543C8C016EE874E02A
:1038C0000E949D2CB801F701838D948D0F90DF919C
:1038D000CF911F910F91FF90EF900C94042D0F90BA
:1038E000DF91CF911F910F91FF90EF900895FC0110
:1038F00027A9211109C086A9811106C06EE575E0CE
:103900008BEA95E00C94C13C0895FC0126A966233E
:1039100019F0211105C0A1CFFC0116AA2111E7CF92
:103920000895CF93DF93EC018D859E850E94D50C81
:103930008B859C850E94D50C8B819C810E94252EB5
:103940001E8E81E08FABCE0178DF1AAADF91CF9176
:103950000895FC0117AACBCF0F931F93CF93DF934A
:10396000CDB7DEB78C0168857985FC0183899489A0
:103970000E9495116A857B85F801838994890E944C
:10398000BA116C857D85F801838994890E94DF11C5
:103990002E85F80183899489222319F00E9404124C
:1039A00002C00E942C124F85588969897A89F801D2
:1039B000838594850E94650C4B895C896D897E891D
:1039C000F801838594850E947D0C4F89588D698DFF
:1039D0007A8DF801838594850E94950CF801838582
:1039E0009485DF91CF911F910F910C94D50CCF93BB
:1039F000DF93EC0162E675E085EE96E00E94C13C43
:103A000062E675E082E897E00E94C13CFE01E85B57
:103A1000FF4F1082319610828B859C850E945F0C2F
:103A2000AB01BC0189899A890E94650C8B859C85B4
:103A30000E94770CAB01BC0189899A89DF91CF91F3
:103A40000C947D0CEF92FF920F931F93CF93DF9313
:103A50001F92CDB7DEB77C01FC018281681771F13E
:103A600081E0858FC7016983AEDE6981F7016283DA
:103A700084E090E00E94543C8C016AEA74E00E9469
:103A80009D2CB801F701838D948D0E94042DC701F0
:103A900026DEC701ACDFF701838594850E945F0CA9
:103AA000AB01BC01F701818992890F90DF91CF9121
:103AB0001F910F91FF90EF900C94650C0F90DF9188
:103AC000CF911F910F91FF90EF900895CF92DF92C9
:103AD000EF92FF920F931F93CF93DF93EC010E941D
:103AE000C9356B017C0160E175E085EE96E00E94CE
:103AF000C13C8E01085B1F4F0E94C9356C197D09BE
:103B00008E099F09653171058105910540F48F810A
:103B100098850E940830F8018081882369F389899B
:103B20009A89DF91CF911F910F91FF90EF90DF90D5
:103B3000CF900C945F0CCF92DF92EF92FF920F9395
:103B40001F93CF93DF93EC010E94C9356B017C0179
:103B500060E175E082E897E00E94C13C8E01075B5E
:103B60001F4F0E94C9356C197D098E099F09653167
:103B700071058105910540F48F8198850E94083078
:103B8000F8018081882369F389899A89DF91CF912F
:103B90001F910F91FF90EF90DF90CF900C94770CD6
:103BA0002F923F924F925F926F927F928F929F924D
:103BB000AF92BF92CF92DF92EF92FF920F931F933B
:103BC000CF93DF93CDB7DEB7C455D1090FB6F894C4
:103BD000DEBF0FBECDBF65969FAF8EAF659781E00C
:103BE0006596AEADBFAD6597D2968C93D297D596BC
:103BF0008C91882349F020E030E040E85FE329879A
:103C00003A874B875C8708C083E393E3ABECB1E46E
:103C100089879A87AB87BC876596AEADBFAD659740
:103C20001F968D919C9150970E94590C6B017C01BD
:103C30006596EEADFFAD6597878590890E945F0C14
:103C40009B01AC01C701B6010E94BD436B017C0121
:103C50006596AEADBFAD65975F966D917C9190977F
:103C6000882777FD8095982F0E94EC449B01AC013A
:103C7000C701B6010E94054629853A854B855C85BA
:103C80000E9405460E94B94469A77AA78BA79CA702
:103C90006596EEADFFAD6597878590890E94710CA2
:103CA0006B017C016596AEADBFAD65971F968D919A
:103CB0009C9150970E94770C9B01AC01C701B60103
:103CC0000E94BD436B017C016596EEADFFAD65972B
:103CD00061A172A1882777FD8095982F0E94EC44FE
:103CE0009B01AC01C701B6010E94054629853A85B2
:103CF0004B855C850E9405460E94B9446DA77EA74E
:103D00008FA798AB6596AEADBFAD65971F968D91A9
:103D10009C9150970E94890C6B017C016596EEADD9
:103D2000FFAD6597878590890E948F0C9B01AC0140
:103D3000C701B6010E94BD436B017C016596AEAD23
:103D4000BFAD659793966D917C919497882777FD89
:103D50008095982F0E94EC449B01AC01C701B601ED
:103D60000E94054629853A854B855C850E9405465B
:103D70000E94B94469AB7AAB8BAB9CAB6596EEAD58
:103D8000FFAD6597878590890E94590C6596AEAD09
:103D9000BFAD65971F968D919C9150970E94710CB5
:103DA0006596EEADFFAD6597878590890E94890C79
:103DB00029A53AA54BA55CA557FF04C0CC24CA94FD
:103DC000DC2C03C0CC24C394D12C8DA59EA5AFA51B
:103DD000B8A9B7FF03C00FEF1FEF02C001E010E06A
:103DE00029A93AA94BA95CA957FF04C0EE24EA947B
:103DF000FE2C03C0EE24E394F12C9701A801B60138
:103E00006596AEADBFAD659713968D919C91149755
:103E10000E94432E9601442737FD4095542F2BAF27
:103E20003CAF4DAF5EAF29A53AA54BA55CA56BADE8
:103E30007CAD8DAD9EAD0E94DD4669837A838B8318
:103E40009C83C801AA2797FDA095BA2F23968CAF13
:103E50009DAFAEAFBFAF23972DA53EA54FA558A9E7
:103E6000BC01CD010E94DD466D837E838F839887E0
:103E70000E94EC444B015C0169817A818B819C81B9
:103E80000E94EC442B013C019701442737FD4095EB
:103E9000542F27962CAF3DAF4EAF5FAF279729A980
:103EA0003AA94BA95CA927966CAD7DAD8EAD9FADAF
:103EB00027970E94DD466D877E878F87988B0E94AB
:103EC000EC446B017C0189819A81AB81BC812D819D
:103ED0003E814F81588582179307A407B5075CF58B
:103EE0008D859E85AF85B889281739074A075B07F6
:103EF0000CF44FC0A5019401C301B2010E945144CA
:103F000069837A838B839C83A5019401C701B601E1
:103F10000E9451446B017C012D813E814F81588567
:103F20002D873E874F87588B812C912C50E8A52EEA
:103F30005FE3B52E46C08D859E85AF85B889298102
:103F40003A814B815C81281739074A075B070CF1DE
:103F5000A3019201C501B4010E9451444B015C01CF
:103F6000A3019201C701B6010E9451446B017C017B
:103F700089819A81AB81BC818D879E87AF87B88B01
:103F800020E030E040E85FE329833A834B835C83A1
:103F900018C0A7019601C301B2010E945144698370
:103FA0007A838B839C83A7019601C501B4010E948B
:103FB00051444B015C01C12CD12C40E8E42E4FE36D
:103FC000F42E6596AEADBFAD65971B968D919C9115
:103FD0001C970E945F0C6D837E838F839887659604
:103FE000EEADFFAD6597838594850E94770C698B54
:103FF0007A8B8B8B9C8B6596AEADBFAD65971B9610
:104000008D919C911C970E948F0C6D8B7E8B8F8B5A
:10401000988F6596EEADFFAD6597858596850E9474
:104020005F0C698F7A8F8B8F9C8F6596AEADBFAD1D
:1040300065971D968D919C911E970E94770C6D8FB0
:104040007E8F8F8F98A36596EEADFFAD65978585C2
:1040500096850E948F0C69A37AA38BA39CA31DA2B3
:104060001EA21FA218A61FAA18AE19AE1AAE312C96
:10407000212C1DAA1EAA00E0512C412C10E08DA17C
:104080009EA1AFA1B8A52D853E854F855889821781
:104090009307A407B5070CF036C20E94D535639686
:1040A0006CAF7DAF8EAF9FAF639729813A814B8113
:1040B0005C81602F752D842D912F0E94BE43289620
:1040C0006FAF289729967FAF29972A968FAF2A97A7
:1040D0002B969FAF2B9720E030E040E05FE30E94FB
:1040E000BE430E94B9443B0120E030E040E05FE382
:1040F000602F752D842D912F0E94BE430E94B944DC
:10410000661577050CF06EC029A53AA54BA55CA5F0
:10411000232B242B252B09F465C06596AEADBFADCE
:1041200065971396ED91FC911497808191810E947F
:10413000E32E6BAD7CAD8DAD9EAD0E94EC442B01AA
:104140003C016596EEADFFAD6597678D70A1882740
:1041500077FD8095982F0E94EC449B01AC01C30130
:10416000B2010E94514429853A854B855C850E94A5
:1041700005462B013C019B01AC016D817E818F8145
:1041800098850E94BE436D837E838F839887A301A9
:104190009201698D7A8D8B8D9C8D0E94BE43698FB3
:1041A0007A8F8B8F9C8F4D815E816F81788565962C
:1041B000AEADBFAD65971B968D919C911C970E94EB
:1041C000650C6596EEADFFAD659787859089258571
:1041D00036858217930731F4498D5A8D6B8D7C8D0E
:1041E0000E94650CA5019401632D722D8DA99EA9D5
:1041F0000E94BE432C966FAF2C972D967FAF2D97C4
:104200002E968FAF2E972F969FAF2F9720E030E0FE
:1042100040E05FE30E94BE430E94B9448B0120E06E
:1042200030E040E05FE3632D722D8DA99EA90E94CE
:10423000BE430E94B944601771070CF070C02DA5F1
:104240003EA54FA558A9232B242B252B09F467C085
:104250006596AEADBFAD65971396ED91FC91149741
:10426000828193810E94E32E23966CAD7DAD8EAD4D
:104270009FAD23970E94EC442B013C016596EEAD67
:10428000FFAD659761A172A1882777FD8095982F72
:104290000E94EC449B01AC01C301B2010E94514455
:1042A00029853A854B855C850E9405462B013C019A
:1042B0009B01AC0169897A898B899C890E94BE43E4
:1042C000698B7A8B8B8B9C8BA30192016D8D7E8D7C
:1042D0008F8D98A10E94BE436D8F7E8F8F8F98A384
:1042E00049895A896B897C896596AEADBFAD659762
:1042F0001B968D919C911C970E947D0C6596EEAD4E
:10430000FFAD659787859089258536858217930748
:1043100031F44D8D5E8D6F8D78A10E947D0CA701CB
:1043200096016FA978AD89AD9AAD0E94BE43162F54
:10433000072F1C0120E030E040E05FE30E94BE4315
:104340000E94B9443B0120E030E040E05FE36FA908
:1043500078AD89AD9AAD0E94BE430E94B9446615FE
:1043600077050CF070C029A93AA94BA95CA9232BA9
:10437000242B252B09F467C06596AEADBFAD6597BC
:104380001396ED91FC911497848195810E94E32E00
:1043900027966CAD7DAD8EAD9FAD27970E94EC4406
:1043A0002B013C016596EEADFFAD659763A174A14D
:1043B000882777FD8095982F0E94EC449B01AC01E3
:1043C000C301B2010E94514429853A854B855C8521
:1043D0000E9405462B013C019B01AC016D897E8941
:1043E0008F89988D0E94BE436D8B7E8B8F8B988FAB
:1043F000A301920169A17AA18BA19CA10E94BE4355
:1044000069A37AA38BA39CA34D895E896F89788D5C
:104410006596AEADBFAD65971B968D919C911C972F
:104420000E94950C6596EEADFFAD659787859089E6
:10443000258536858217930731F449A15AA16BA1CE
:104440007CA10E94950C6596AEADBFAD65971396A5
:104450008D919C9114970E94212E3C010E94D5358C
:104460002301662457FC6094762C461A570A680A82
:10447000790A63962CAD3DAD4EAD5FAD6397420EAC
:10448000531E641E751EB301A20165968EAD9FADCD
:1044900065970E946D146596AEADBFAD6597D696D3
:1044A0008C91D6978111BCC1D7968C918111B8C1DE
:1044B0002DA13EA14FA158A52F5F3F4F4F4F5F4FFA
:1044C0002DA33EA34FA358A71FAB08AF29AE3AAE0A
:1044D0002C963FAC2C972D962FAC2D972E963FAD5A
:1044E0002E973DAB2F964FAD2F974EAB28960FAD25
:1044F000289729965FAC29972A964FAC2A972B9636
:104500001FAD2B97BCCD6596AEADBFAD659712962E
:104510008C911297A458BF4F5D0181116CC16596B3
:10452000EEADFFAD6597818992890E945F0C6B01AA
:104530007C016596AEADBFAD65971B968D919C9144
:104540001C970E945F0C9B01AC01C701B6010E9441
:10455000BD4320E030E0A9010E94FA456596EEAD2A
:10456000FFAD6597218932891816F4F4C9010E94BC
:104570005F0C6B017C016596AEADBFAD65971B9678
:104580008D919C911C970E945F0C9B01AC01C7010F
:10459000B6010E94BD432AE037ED43E25CE30E948E
:1045A000FA451816F4F01BC0C9010E945F0C6B019C
:1045B0007C016596EEADFFAD6597838594850E947D
:1045C0005F0C9B01AC01C701B6010E94BD432AE00C
:1045D00037ED43E25CEB0E944A4487FD02C010E0E5
:1045E00038C065968EAD9FAD659770DA6B017C0122
:1045F0006596EEADFFAD6597E85BFF4F8081882340
:1046000071F31082B701A6016596AEADBFAD659797
:104610001B968D919C911C970E94650C6596EEAD42
:10462000FFAD6597838594850E94590CA70196017B
:104630000E94BD439B01AC01C701B6010E94BE436D
:10464000AB01BC0165968EAD9FAD65970E94871248
:1046500011E06596AEADBFAD659751968D919C9179
:1046600052970E94770C6B017C016596EEADFFAD11
:104670006597838594850E94770C9B01AC01C701E7
:10468000B6010E94BD4320E030E0A9010E94FA4536
:104690006596AEADBFAD659751962D913C91529701
:1046A0001816E4F4C9010E94770C6B017C01659631
:1046B000EEADFFAD6597838594850E94770C9B01D5
:1046C000AC01C701B6010E94BD432AE037ED43E2C9
:1046D0005CE30E94FA451816F4F055C0C9010E9427
:1046E000770C6B017C016596AEADBFAD65971B96EF
:1046F0008D919C911C970E94770C9B01AC01C70186
:10470000B6010E94BD432AE037ED43E25CEB0E9414
:104710004A4487FF38C065968EAD9FAD65970BDA2A
:104720006B017C016596EEADFFAD6597E75BFF4FD2
:104730008081882341F11082B701A6016596EEAD14
:10474000FFAD6597838594850E947D0C6596AEAD1F
:10475000BFAD65971B968D919C911C970E94710C23
:10476000A70196010E94BD439B01AC01C701B601A0
:104770000E94BE43AB01BC0165968EAD9FAD6597AF
:104780000E94B41202C0112379F0F5018081918159
:10479000833091054CF401969183808365968EADAC
:1047A0009FAD6597FDD927C0D5018D919C91039749
:1047B00054F040E050E060E870EC65968EAD9FAD3F
:1047C00065970E943D1B65968EAD9FAD65970FD98D
:1047D0006596EEADFFAD6597168E858596850E9430
:1047E000D50C6596AEADBFAD65971B968D919C912E
:1047F0001C970E94D50C0E94C935AB01BC0165967F
:10480000EEADFFAD6597838194810E945D2E659624
:10481000AEADBFAD6597D2961C92F50111821082A4
:1048200080E090E0CC5ADF4F0FB6F894DEBF0FBEA9
:10483000CDBFDF91CF911F910F91FF90EF90DF904F
:10484000CF90BF90AF909F908F907F906F905F9030
:104850004F903F902F900895CF92DF92EF92FF926A
:10486000CF93DF93EC01FC01E259FF4F8081882355
:1048700089F17A974081518162817381CE010E94D2
:10488000E112CE018DD9FE01E35AFF4FC080D180E5
:10489000E280F38020E030E0A901C701B6010E9468
:1048A000FA4518162CF4B701A601CE010E94261471
:1048B000FE01E05BFF4F4081518162817381CE0137
:1048C0000E94E112CE01DF91CF91FF90EF90DF9037
:1048D000CF9066C9DF91CF91FF90EF90DF90CF909E
:1048E00008952F923F924F925F926F927F928F9294
:1048F0009F92AF92BF92CF92DF92EF92FF920F936F
:104900001F93CF93DF93CDB7DEB7A1970FB6F8947F
:10491000DEBF0FBECDBF9A8389834C835D836E83D8
:104920007F83088719872A873B87CC8ADD8AEE8AAE
:10493000FF8A888E998EAA8EBB8E5FA8FC01878520
:1049400090890E945F0C6C877D878E879F87E981A5
:10495000FA81878590890E94770C688B798B8A8B86
:104960009B8B80E190E00E94543C3C0144244394A2
:104970004F9288889988AA88BB88CC84DD84EE848D
:10498000FF84088519852A853B854C815D816E8170
:104990007F810E94C93180E190E00E94543C1C015B
:1049A0004F92888C998CAA8CBB8CCC88DD88EE8841
:1049B000FF88088519852A853B854C815D816E813C
:1049C0007F810E94C9310F900F90C301552009F4D7
:1049D0005AC00E9475306B017C01C1010E94753084
:1049E0009B01AC01C701B6010E94FA45181684F478
:1049F000C3010E9475306B017C01C1010E947530BA
:104A00009B01AC01C701B6010E94BD43FFEF88C006
:104A1000C3010E9475306B017C01C1010E94753099
:104A20009B01AC01C701B6010E944A4487FF17C031
:104A3000C3010E9475306B017C01C1010E94753079
:104A40002BED3FE049EC50E40E94BD439B01AC01DB
:104A5000C701B6010E94BD432FEF2B8382C0C30163
:104A60000E9475306B017C01C1010E9475309B0171
:104A7000AC01C701B6010E944A44882309F468C00A
:104A80008FEF8B8361C00E9475306B017C01C10187
:104A90000E9475309B01AC01C701B6010E94FA4526
:104AA0001816FCF4C3010E9475309B01AC01C101D2
:104AB0002E8F3F8F48A359A30E9475306B017C0154
:104AC0002E8D3F8D48A159A16BED7FE089EC90E4DC
:104AD0000E94BD43A70196010E94BE43E1E0EB8323
:104AE00040C0C3010E9475306B017C01C1010E946E
:104AF00075309B01AC01C701B6010E944A4487FF93
:104B000011C0C1010E9475306B017C01C3010E947C
:104B100075309B01AC01C701B6010E94BD43F1E0B5
:104B2000FB831FC0C3010E9475306B017C01C10172
:104B30000E9475309B01AC01C701B6010E944A4436
:104B4000882349F021E02B8360E070E0CB0109C0AD
:104B50008FEF8B8302C091E09B836BED7FE089EC4C
:104B600090E42BED3FE049EC50E40E94514420E0FA
:104B700030E044EB53E40E9405460E94B9447D8F27
:104B80006C8F80E190E00E94543C1C0181E08F9387
:104B900088889988AA88BB88CC84DD84EE84FF84C9
:104BA000088519852A853B854C815D816E817F81D1
:104BB000C1010E94C9310F90A12CB12CEB814E2E66
:104BC000552447FC5094652C752C11E08C8D9D8DDF
:104BD000A816B9060CF04CC0C1010E9475306B01DB
:104BE0007C01C301B2010E94EC4425E33AEF4EE898
:104BF0005CE30E9405469B01AC01C701B6010E941F
:104C0000BE43AB01BC01C1010E943030C1010E9412
:104C10002B32E981FA81878590890E945F0CC1015E
:104C20000E94F032E981FA81878590890E94770C91
:104C3000C1010E942B32AB01BC01E981FA81878559
:104C400090890E94530CC1010E94F032AB01BC015B
:104C5000E981FA81878590890E946B0CE981FA814C
:104C6000168FCF010E94D01DFFEFAF1ABF0AAECF43
:104C700080E090E00E94583C80E090E00E94583C28
:104C800080E090E00E94583C4C895D896E897F8964
:104C9000E981FA81878590890E94650C488D598D3C
:104CA0006A8D7B8DE981FA81878590890E947D0CD0
:104CB000E981FA8187859089A1960FB6F894DEBFC5
:104CC0000FBECDBFDF91CF911F910F91FF90EF905D
:104CD000DF90CF90BF90AF909F908F907F906F901C
:104CE0005F904F903F902F900C94D50C61E775E04A
:104CF00088E496E00C94C13C2F923F924F925F92D1
:104D00006F927F928F929F92AF92BF92CF92DF92DB
:104D1000EF92FF920F931F93CF93DF93CDB7DEB740
:104D200065970FB6F894DEBF0FBECDBF3C012B01D7
:104D30009E012F5F3F4F3D8B2C8B83E1F901119238
:104D40008A95E9F7F30172876187FB0186AD9B01C4
:104D5000295B3F4F1901882309F444C160817181A7
:104D6000828193810E94B9446431710509F48EC037
:104D7000DCF46230710509F44FC044F4611571052B
:104D8000E9F16130710509F442C02CC1643071054C
:104D900009F46CC00CF455C06B30710509F022C1E8
:104DA000C3010E94911C1EC16633710509F4A8C09D
:104DB000C4F46C31710509F474C06533710509F4EC
:104DC0009BC06531710509F00DC181E0F30185AB30
:104DD000C3010E94A91BF301878590890E94EF0CF3
:104DE00001C16A35710509F4F4C06B35710509F428
:104DF000F4C06235710509F0F5C0AEC0F3018381DE
:104E0000948117D7BC01F3018381948116D760E0A8
:104E1000C3010E94AA19E6C0F20187AD882309F4F4
:104E2000E1C0E05CFF4F8081882309F4DBC033964A
:104E30008081882309F4D6C03197808181114CC1CB
:104E4000D1C0F20187AD882309F4CCC0E05CFF4FEC
:104E50008081882309F4C6C033968081882309F4B1
:104E6000C1C031978081811153C1BCC0F201E85BA0
:104E7000FF4F8081882309F4B5C0F20140A551A5F8
:104E800062A573A5C3010E942614ACC0F30115AA44
:104E9000C3010E94A91BF301878590890E944E0DD2
:104EA000A1C0F301EF59FF4F4081518162817381AD
:104EB000F301878590890E94530CF301EB59FF4F52
:104EC0004081518162817381F301878590890E94BD
:104ED0006B0CF301E759FF4F40815181628173816F
:104EE000F301878590890E94830C81E0F301868F0E
:104EF00083819481B8D676C0F3018385948503C0FD
:104F0000F30185859685908B87870E945F0CAB01A6
:104F1000BC01F301818992890E94650CF3018785A8
:104F200090890E94770CAB01BC01F30181899289C1
:104F30000E947D0CF301878590890E948F0CAB0144
:104F4000BC01F301818992890E94950CF30181894A
:104F500092890E94D50C46C061E0C3010E94AA1943
:104F6000F301E85AFF4F1082F201E85BFF4F8081A6
:104F7000882361F0F20180A591A5A2A5B3A5F30154
:104F8000E35AFF4F80839183A283B383F101808131
:104F9000882361F0F20184A195A1A6A1B7A1F30134
:104FA000E05BFF4F80839183A283B383F201EF5BC9
:104FB000FF4F80818823B1F0F20184859585A68515
:104FC000B785F301EC5AFF4F80839183A283B383AB
:104FD00009C081E0F301858F02C0F301158EC30182
:104FE0000E94E31BF201EC5BFF4F8081882371F08C
:104FF000F20186AD81110AC0F1018081811106C0E4
:10500000A5C0672B19F4C3010E94911CF101808196
:105010008823A9F0F20186AD811111C082C16731E8
:1050200071050CF04DC26930710509F492C10CF0A4
:1050300028C26230710509F091C1F3011182F201B9
:1050400087AD811109C0E05CFF4F9081911104C0D0
:10505000319690819923A1F0F301E359FF4F90819C
:10506000992309F4FEC2B201C3010E940E1381E02C
:10507000F301868F83819481F6D5C3010E94D01DF0
:10508000F201E75BFF4F8081882309F421C3F2011D
:1050900064A575A586A597A50E94B944672B09F05C
:1050A00017C3C30165960FB6F894DEBF0FBECDBF20
:1050B000DF91CF911F910F91FF90EF90DF90CF90F4
:1050C000BF90AF909F908F907F906F905F904F9028
:1050D0003F902F900C94011462E0C3010E94AA1922
:1050E000F30183819481BFD5F20180849184A284ED
:1050F000B384C480D580E680F78004891589268929
:105100003789408951896289738981E08F931AC0F8
:1051100062E0C3010E94AA19F30183819481A3D59F
:10512000F20180849184A284B384C480D580E68017
:10513000F7800489158926893789408951896289D0
:1051400073891F92C301CDDB0F904CCFF201608DAC
:10515000718D828D938D0E94B9446731710569F418
:1051600060E0F301878590890E949B0C60E0F30169
:10517000878590890E94B80C49CF683171050CF081
:1051800060C06330710589F4F30185819681FDD497
:1051900008C06530710509F039CFF301858196812A
:1051A000EFD4C3010E94D11A31CF64307105CCF520
:1051B0006130710521F4C3010E94F51327CF6230DD
:1051C00071050CF41ECFF301EF59FF4F408151815F
:1051D00062817381F301878590890E94530CF301EA
:1051E000EB59FF4F4081518162817381F3018785C3
:1051F00090890E946B0CF301E759FF4F4081518168
:1052000062817381F301878590890E94830C81E01C
:10521000F301868F8381948126D5C3010E94D01D1E
:10522000F5CE6531710539F461E0F3018785908928
:105230000E949B0CEBCE663171050CF4AACF61E0A5
:1052400096CF6B31710531F4F301858596850E9407
:10525000DB0DDCCE6C31710594F4F3018585968508
:105260006931710519F40E94C70DD0CE6A317105FC
:105270001CF40E94AD0DCACE0E94D10DC7CE6E3176
:10528000710559F5F301EF59FF4F4081518162815A
:105290007381F301878590890E94530CF301EB59C8
:1052A000FF4F4081518162817381F301878590892D
:1052B0000E946B0CF301E759FF4F408151816281DD
:1052C0007381F301878590890E94830C81E0F3014B
:1052D000868F83819481C7D499CE6F31710594F400
:1052E0006C31710509F092CEF301838594850E949B
:1052F000AD0DF301818992890E94AD0DC3010E9419
:10530000F71C84CE6F31710521F4C3010E94A91CE2
:105310007DCE6233710509F079CEC3010E94CD14B0
:1053200075CEF20164A175A186A197A10E94B9442E
:105330006631710509F073CEF20160A971A982A9E5
:1053400093A90E94B944F301838994890E9495111D
:1053500076CEF30181A9811172CEA3CE663071059C
:1053600009F048C0F201E65BFF4F8081882361F0BD
:10537000F20160A971A982A993A90E94B944F3011D
:10538000838994890E949511F201E55BFF4F80812A
:10539000882361F0F20164A975A986A997A90E94E2
:1053A000B944F301838994890E94BA11F201E45B44
:1053B000FF4F80818823D1F0F20160AD71AD82ADE5
:1053C00093AD0E94B944F301838994890E94DF114F
:1053D0000DC0613171050CF460C06431710509F0D4
:1053E00065C0F301838994890E940412C3010E945D
:1053F000931825CE6130710509F021CE81E0F301CB
:105400008183C3010E949318C3010E94971AC301AC
:105410000E946819C3010E942B19C3010E94D11A6E
:10542000C3010E946F1BC3010E94E31BC3010E94C2
:10543000A91BC3010E941D1C84E090E00E94543C03
:105440008C0162EB74E079D2B801F301838D948D05
:1054500065960FB6F894DEBF0FBECDBFDF91CF913A
:105460001F910F91FF90EF90DF90CF90BF90AF9082
:105470009F908F907F906F905F904F903F902F9074
:10548000C3C26031710509F0A4CFF301838D948DFF
:10549000BFD2C3010E942B19D2CD6F30710509F024
:1054A000CECDF301838D948DB6D2F3CF65317105E6
:1054B00009F0C5CDF301838994890E942C1296CFFF
:1054C0006D31710561F4F20164A575A586A597A5F6
:1054D0000E94B944F3018581968142D3B0CD6E31EB
:1054E00071050CF082C06831710569F4F20160AD9C
:1054F00071AD82AD93AD0E94B944F3018389948963
:105500000E94DF119CCD683171056CF4F20164A931
:1055100075A986A997A90E94B944F3018389948942
:105520000E94BA118CCD6B31710509F088CDF30161
:10553000838994890E94B6119A838983F3018389B0
:1055400094890E94DB119C838B83F3018389948966
:105550000E9400129E838D83F301838994890E94A7
:1055600053128F83F301838594850E945F0C6887B3
:1055700079878A879B87F301838594850E94770CBE
:105580006C877D878E879F87F301838594850E9432
:105590008F0C688B798B8A8B9B8B2DB73EB72351F1
:1055A00031090FB6F8943EBF0FBE2DBFADB7BEB7E1
:1055B000119683E1FE01319601900D928A95E1F7F3
:1055C0000E94060E84E090E00E94543C8C016EE93B
:1055D00074E0B3D1B801F301838D948D15D20FB669
:1055E000F894DEBF0FBECDBF2ACD6436710541F4FD
:1055F00084E090E00E94543C8C0166E072E016C0AA
:1056000065367105DCF066397105F9F481E0F30166
:105610008183C3010E94D11AC3010E94931884E0C0
:1056200090E00E94543C8C0166E774E0C80185D18B
:10563000B801F301838D948DE7D101CD6C357105EF
:1056400009F0FDCCC30152DBFACC6739710509F0D2
:10565000F6CC84E090E00E94543C8C016EE574E04E
:10566000E5CFF301E259FF4F9081992309F408CD6A
:10567000882309F405CDF201E05CFF4F8081882387
:1056800009F4FECC81E0F301868F83819481EBD213
:10569000F2014481558166817781F3018785908984
:1056A0000E94530CF2014481558166817781C301C8
:1056B0000E948712F2014085518562857385C3017E
:1056C0000E94B412C3010E94D01DC301C5D8D8CC1A
:1056D00065960FB6F894DEBF0FBECDBFDF91CF91B8
:1056E0001F910F91FF90EF90DF90CF90BF90AF9000
:1056F0009F908F907F906F905F904F903F902F90F2
:105700000895FC0110821182128213821086118684
:1057100012861386148215821682178281E0838B8B
:10572000158A148A178A168A16861586108A17868D
:10573000128A118A0895E5CFCF93DF93EC01862F6B
:105740006D877E8760E00E94973761E08D85DF91ED
:10575000CF910C94D037CF93DF93EC01862F6F87D6
:10576000788B60E00E94973761E08F85DF91CF9161
:105770000C94D037EF92FF920F931F93CF93DF9348
:105780001F921F92CDB7DEB77C018A0169837A83AD
:10579000B8DF69817A81C701CFDFB801C7010F90F7
:1057A0000F90DF91CF911F910F91FF90EF90D3CF8A
:1057B0000F931F93CF93DF93EC018D850E940538E3
:1057C0008C018F850E940538000F111F082B192BA3
:1057D00088859985AA85BB8532E0880F991FAA1F05
:1057E000BB1F3A95D1F7802B912B8D30910549F055
:1057F0008430910531F08230910519F08B3091059C
:1058000071F4EC89FD89309709F019954881598127
:105810006A817B81415051096109710918C08E303C
:10582000910541F09C01275031092230310510F0DB
:10583000019789F4EE89FF89309709F0199548811D
:1058400059816A817B814F5F5F4F6F4F7F4F4883E4
:1058500059836A837B83222717FD2095322F08877F
:1058600019872A873B87DF91CF911F910F91089568
:105870000F931F93FC0140815181628173810481E8
:105880001581268137814483558366837783CB01D5
:10589000BA01601B710B820B930B1F910F9108953E
:1058A0002FEF3FEFFC013183208333832283089560
:1058B000FC01862F6083718360E00C9497372FEF93
:1058C0003FEFFC013183208333832283F1CFFC013E
:1058D0008281938108950F931F93CF93DF93EC01FF
:1058E0008881998197FD24C00E945A368C014AE034
:1058F00050E0BC018BEA95E00E94663DC801805CE7
:1059000093408734910518F482E090E00FC0C801FD
:105910008C5A9340449718F41B821A8209C000598C
:1059200011400437110520F481E090E09B838A83C5
:10593000DF91CF911F910F910895FC011182108288
:10594000138212826115710511F0718360830895CD
:10595000DC0112962D913C911397220F331FED918C
:10596000FC91E20FF31F80819181009711F48FEF7A
:105970009FEF0895DC0112962D913C9113972F5FB4
:105980003F4F220F331FED91FC91E20FF31F8081F7
:105990009181009711F48FEF9FEF0895FC01228110
:1059A00033812E5F3F4F338322830895FC018FEFB5
:1059B0009FEF91838083148213821582168217824F
:1059C0001086118612861386148612820895FC01B1
:1059D000862F6083718361E00C9497370F931F9338
:1059E000CF93DF931F921F92CDB7DEB78C016983EF
:1059F0007A83DCDF69817A81C8010F900F90DF9193
:105A0000CF911F910F91E3CFFC01748363830895BD
:105A1000FC011282089521E0FC0122830895FC011B
:105A2000828108950F931F93CF93DF93EC010E941F
:105A3000C93509851A852B853C8560177107820752
:105A4000930728F081E02B813C81232B09F480E02F
:105A5000DF91CF911F910F910895CF92DF92EF9236
:105A6000FF92CF93DF93EC018B819C8171DF7C01EE
:105A70008B819C817FDF9C018FEFE816F80621F077
:105A80002F3F8FEF380749F41C821B82DF91CF91A3
:105A9000FF90EF90DF90CF9008958A81811111C01F
:105AA0008EEFE8168FEFF80621F488810E94F0410E
:105AB00008C0442737FD4095542FB70188810E94C4
:105AC000CE3E0E94C9356B017C018B819C8152DFE7
:105AD000AC01662757FD6095762F4C0D5D1D6E1D40
